:020000040800F2
:10000000700D00209D010008AB110008F7100008DA
:10001000A9110008C9020008BD1C0008000000006A
:10002000000000000000000000000000811800082F
:10003000DD02000800000000AD110008851800086E
:10004000B7010008B7010008B7010008B7010008B0
:10005000B7010008B7010008B7010008B7010008A0
:10006000B7010008B7010008B7010008B701000890
:10007000B7010008B7010008B7010008B701000880
:10008000B7010008B7010008B7010008B701000870
:10009000B7010008B7010008B7010008B701000860
:1000A000B7010008B7010008B7010008B701000850
:1000B000B7010008B7010008B7010008B701000840
:1000C000B7010008B7010008B7010008B701000830
:1000D000B7010008B7010008B7010008B701000820
:1000E000B7010008B7010008B7010008B701000810
:1000F000B7010008B7010008B7010008B701000800
:10010000B7010008B7010008B7010008B7010008EF
:10011000B7010008B7010008B7010008B7010008DF
:10012000B7010008B7010008B7010008B7010008CF
:10013000B7010008B7010008B7010008B7010008BF
:10014000B7010008B7010008B7010008B7010008AF
:10015000B7010008B7010008B7010008B70100089F
:10016000B7010008B7010008B7010008B70100088F
:10017000B7010008B7010008B7010008000000003F
:10018000B7010008B7010008DFF80CD000F08AF8CA
:1001900000480047AD2C0008700D0020064880473D
:1001A00006480047FEE7FEE7FEE7FEE7FEE7FEE75C
:1001B000FEE7FEE7FEE7FEE72D19000889010008CB
:1001C0002DE9F05F0546002092469B46884606468C
:1001D000814640241BE0284641464746224600F01F
:1001E00051F853465A46C01A914110D31146184649
:1001F000224600F038F82D1A67EB01084F462246D8
:100200000120002100F02FF817EB00094E41201EBD
:10021000A4F10104DFDC484631462A464346BDE8E6
:10022000F09FD2B201E000F8012B491EFBD27047CB
:100230000022F6E710B513460A4604461946FFF7B2
:10024000F0FF204610BD421C10F8011B0029FBD115
:10025000801A7047034611F8012B00F8012B002A81
:10026000F9D118467047202A04DB203A00FA02F13F
:10027000002070479140C2F1200320FA03F3194394
:1002800090407047202A04DB203A21FA02F0002136
:10029000704721FA02F3D040C2F120029140084396
:1002A00019467047064C074D06E0E06840F0010330
:1002B00094E8070098471034AC42F6D3FFF768FF84
:1002C0004432000864320008FEE7000001221103F6
:1002D000014800F011B900000004024070470022FC
:1002E000AFF3008030B50E4B054601205C7A002C40
:1002F00014D1587A1C54587A03EB800045605D7A1B
:1003000003F108002A54587A421C5A72303008709F
:100310003A2048702F208870CC70002030BD00003B
:100320006009002070B5044600F0ECF80546601C3A
:1003300002D004480078044400F0E4F8401BA042D6
:10034000FAD370BD300000202DE9F84FDFF87CB102
:1003500000224FF001084FF0030A4FF00F090BF194
:10036000040E00BF0B6808FA02F42340A3426ED1CA
:100370004D68022D01D0122D0ED1D50800EB850C51
:10038000DCF820505607F70E09FA07F6B5430E6958
:10039000BE402E43CCF82060066855000F790AFA5B
:1003A00005FC07F0030726EA0C06AF403743076059
:1003B0004E68012E05D0022E03D0112E01D0122E30
:1003C0000ED18668CF6826EA0C06AF4037438760B7
:1003D0004668A6430C79C4F3001494403443446047
:1003E000C6688C6826EA0C06AC403443C4604C688E
:1003F000E40065D5364C256845F4804525602468C1
:1004000022F0030504F480440094324C2E19D6F8EF
:10041000084895072F0F09FA07F5AC432E4DA8425F
:1004200001D1002524E02D4DA84201D101251FE076
:100430002B4DA84201D102251AE02A4DA84201D134
:10044000032515E0284DA84202D1042510E037E02D
:10045000264DA84201D105250AE0254DA84201D12B
:10046000062505E0234DA84201D1072500E0082517
:10047000BD402543C6F80858DBF800405D464E688D
:100480009C43F60300D51C432C60DEF80040754603
:100490004E689C43B60300D51C432C600B4D0835B9
:1004A0002C684E689C43F60200D51C432C60074D17
:1004B0000C352C684E689C43B60200D51C432C605A
:1004C000521C102AFFF44EAFBDE8F88F003C0140EB
:1004D0004438024000300140000002400004024065
:1004E00000080240000C02400010024000140240CC
:1004F00000180240001C02400AB1816170470904E3
:10050000FBE70000014880687047000030000020D1
:1005100002488168027811448160704730000020F1
:100520000B4810B5016841F400710160016841F4A5
:1005300080610160016841F480710160032000F076
:1005400061F8002000F006F800F024F8002010BD4B
:10055000003C024070B50D4D04464FF47A71287886
:10056000B1FBF0F00A490968B1FBF0F000F0EDFCD6
:1005700048B9102C07D200222146501E00F022F864
:1005800000206C6070BD012070BD000030000020B4
:100590003C0000200A4808B5016841F48041016030
:1005A000006800F4804000900548001F016841F099
:1005B00080510160006800F08050009008BD00008C
:1005C00044380240F0B40E4B1B680C46C3F30223C0
:1005D000C3F10705042D00D90425191D072901D2EF
:1005E000002300E0DB1E012606FA05F1491E21402A
:1005F00099409E40761E16403143F0BC01F05FBB2F
:100600000CED00E0064900F0070208684FF6FF0312
:10061000184040EA0220034A104308607047000077
:100620000CED00E00000FA052DE9F0470E4605004C
:1006300065D0DFF81481D8F80000F7B200F00F00A1
:10064000B04207D288F80070D8F8000000F00F0020
:10065000B04254D128683D4C810712D5400703D5DC
:10066000206840F4E05020602878000703D5206817
:1006700040F4604020602068A96820F0F000084342
:1006800020602878C0072DD03049686808390128D3
:1006900012D0022813D0032811D009688907002935
:1006A0002DDA216821F0030101432160FFF72AFFC1
:1006B000814641F2883A0EE009688903EFE709684C
:1006C0008901ECE7FFF71EFFA0EB0901514502D9B4
:1006D0000320BDE8F0872068696800F00C00B0EBEB
:1006E000810FEFD1D8F80010404601F00F01B14260
:1006F00007D90770006800F00F00B04201D0012058
:10070000E7E72878400705D52068E96820F4E0503D
:10071000084320602878000706D52068296920F45E
:10072000604040EAC100206000F036F82168084AC5
:10073000C1F30311515CC840064908600020FFF76F
:1007400009FF0020C5E70000003C024008380240D5
:100750003E3100083C000020044805490068096853
:10076000044AC1F38221515CC84070473C0000201C
:10077000083802404E3100080448054900680968FD
:10078000044AC1F34231515CC84070473C0000202C
:10079000083802404E310008154810B5006810F0C6
:1007A0000C02144813D01449042A0FD0082A0ED181
:1007B0000F4C241F2268236802F03F025B0207D51A
:1007C0002068C0F38810A0FB010106E0084610BDB8
:1007D0002168C1F38811A1FB00010023FFF7F0FCA1
:1007E0002168C1F30141491C4900B0FBF1F010BD83
:1007F000083802400024F40040787D012DE9F84FCC
:10080000050076D02878DFF8F8B2BE4CC00749D092
:10081000DBF800105846C1F38101012908D00068B7
:10082000C0F3810002280AD1201D0068400206D5CD
:100830002068800336D568680028E2D032E0686816
:10084000B0F5803F10D0B0F5A02F206810D020F474
:1008500080302060206820F4802020606868A0B18B
:10086000FFF750FE06460CE0206840F48030F4E7C5
:1008700040F480202060F7E7FFF744FE801B6428E7
:1008800073D820688003F7D50CE0FFF73BFE0646DF
:1008900005E000BFFFF736FE801B6428F0D8206813
:1008A0008003F7D42878DFF8608280074FF00009D2
:1008B0003ED5DBF80010584611F00C0F09D0006847
:1008C000C0F3810002280BD18D48001F0068400250
:1008D00006D42068800715D5E868012809D111E001
:1008E000E868B8B10120C8F80000FFF70BFE064623
:1008F00005E002E1FFF706FE801B0228C0D8206851
:100900008007F7D52068296920F0F80040EAC10087
:1009100020600DE0C8F80090FFF7F4FD064604E003
:10092000FFF7F0FD801B02281FD820688007F7D44E
:100930002878000722D5724E744869696C3671B107
:1009400001210160FFF7DEFD074604E0FFF7DAFD55
:10095000C01B022809D830688007F7D50EE0C0F820
:100960000090FFF7CFFD074605E083E0FFF7CAFDE3
:10097000C01B02287ED830688007F7D4287840074B
:1009800068D5DFF87CA100270AF1380ADAF8000000
:10099000C0000BD4DAF8001041F08051CAF8001002
:1009A000DAF80000012700F080500090584E3068BF
:1009B000C00510D4306840F480703060FFF7A2FDAD
:1009C000009005E0FFF79EFD0099401A022851D8DB
:1009D0003068C005F6D54A4EA868683601280FD0A1
:1009E0000528306810D020F001003060306820F019
:1009F00004003060A868B8B1FFF784FD00900FE0F4
:100A0000306840F00100F4E740F004003060F7E7A0
:100A1000FFF778FD0099411A41F28830814264D88D
:100A200030688007F4D50EE0FFF76CFD009007E01A
:100A3000FFF768FD0099411A41F28830814254D88D
:100A400030688007F4D42FB1DAF8001021F080511B
:100A5000CAF80010A869C0B3DBF80010C1F3810127
:100A600002294AD00228484607D0C8F86000FFF79C
:100A700049FD00E039E005463AE04746C8F8600025
:100A8000FFF740FD064604E0FFF73CFD801B02280F
:100A90002BD820688001F7D4D5E907010843A96A5B
:100AA0001C4A490802EB01416A6A41EA8211084383
:100AB00095F82C1040EA01611148001F01600120E7
:100AC0003866FFF71FFD054605E014E0FFF71AFD45
:100AD000401B022809D820688001F7D50BE000BF31
:100AE000FFF710FD401B022802D90320BDE8F88F54
:100AF00020688001F4D40020F8E70120F6E7000028
:100B0000083802400038024000004742800E474249
:100B1000007000400000FFFF90F85100704770B572
:100B2000040005D00025A56294F8510010B106E03C
:100B3000012070BD84F85050204600F031F80220AA
:100B400084F851002068016821F040010160D4E977
:100B500001010843D4E903121143084361690843C2
:100B6000218B01F400710843E1690843216A0843BD
:100B7000A16A084321680860A069042101EA1040C5
:100B8000616A0843216848602068C16921F40061F6
:100B9000C1616565012084F85100002070BD00002E
:100BA00010B586B0044614216846FFF741FB14498E
:100BB0002068884221D113480021026842F4804213
:100BC0000260006800F4804005900E48103802680A
:100BD00042F002020260006800F0020005904FF44B
:100BE000604000900220CDE9010103200390052020
:100BF000049069460448FFF7A7FB06B010BD00004B
:100C00000038004040380240000402402DE9F84F0F
:100C1000044690F8500000271D46164689460128D4
:100C20000DD04FF0010B84F850B0FFF76BFC8046FD
:100C300094F85100BA46012804D002278EE0022021
:100C4000BDE8F88FB9F1000F7DD0002E7BD00320D6
:100C500084F85100C4F854A0C4F83090A686E68603
:100C6000C4F838A0A4F83CA0A4F83EA0C4F844A05E
:100C7000C4F840A0A068B0F5004F04D12068016816
:100C800041F48041016020680168490603D401688D
:100C900041F040010160E068B0F5006F606803D08A
:100CA00030B3012E24D040E008B1012E1CD1206BBE
:100CB00021680088C86006E020688168890709D536
:100CC000216B0988C160206B801C2063E08E401E70
:100CD000E08609E0FFF716FCA0EB0800A84202D36B
:100CE000681C01D031E07DB3E08E0028E4D11FE024
:100CF000206B21680078087306E020688168890706
:100D000009D5216B09780173206B401C2063E08EAC
:100D1000401EE08609E0FFF7F5FBA0EB0800A842C3
:100D200002D3681C01D010E075B1E08E0028E4D138
:100D300042462946204600F01FFD08B1202060658C
:100D4000A06820B107E008E0FFE7032706E020687D
:100D5000C16880680090606D00B1012784F851B0CF
:100D600084F850A038466BE72DE9F84F044690F818
:100D7000500000270A9E1D4692468B464FF00109FF
:100D800001280ED0012084F85000FFF7BBFB8046FD
:100D900094F85100616801280CD0B1F5827F07D129
:100DA00002E00220BDE8F88FA16809B9042801D04B
:100DB0000227C2E0BBF1000F27D0BAF1000F24D008
:100DC0001DB394F85100042802D0052084F8510086
:100DD00000206065C4F838A0E587A587C4F830B066
:100DE000E586A5862064606420680168490603D40E
:100DF000016841F040010160E068B0F5006F606893
:100E000005D0E8B3012D46D07FE0012795E008B179
:100E1000012D39D1206B21680088C860206B801CAF
:100E20002063E08E401EE0862EE0206881688907FE
:100E30000FD5E18E69B1B9F1010F0AD1216B098893
:100E4000C160206B801C2063E08E401EE0864FF066
:100E5000000920688168C9070CD0E18F51B1C068D2
:100E6000A16B0880A06B801CA063E08F401EE08710
:100E70004FF00109FFF746FBA0EB0800B04200E08D
:100E800009E001D3701C50D1E08E0028CDD1E08F55
:100E90000028CAD13FE0206B216800780873206BDE
:100EA000401C2063E08E401EE0862EE020688168B2
:100EB00089070FD5E18E69B1B9F1010F0AD1216B14
:100EC00009780173206B401C2063E08E401EE08691
:100ED0004FF0000920688168C9070CD0E18F51B13B
:100EE000C068A16B0870A06B401CA063E08F401E1F
:100EF000E0874FF00109FFF705FBA0EB0800B042C7
:100F000002D3701C01D010E07EB1E08E0028CDD15C
:100F1000E08F0028CAD142463146204600F02CFC22
:100F200028B101272020606507E0032705E0A068BD
:100F300018B92068C16880680090012084F85100C9
:100F4000002084F8500038462CE710B5401EB0F160
:100F5000807F01D3012010BD4FF0E02460610F219C
:100F6000601700F0ACFE0020A06107202061002087
:100F700010BD70B5040004D094F83900002510B1FC
:100F800006E0012070BD84F83850204600F022F8B9
:100F9000242084F839002068C16821F40051C16020
:100FA000204600F0EDFC2068016921F490410161C8
:100FB0002068416921F02A0141612068C16841F43B
:100FC0000051C160E563202084F8390084F83A00BC
:100FD000002070BD10B586B0044614216846FFF7A6
:100FE00027F91349206888421FD11248016841F44B
:100FF00000210160006800F4002005900D481038C1
:10100000016841F0010101600068022100F0010067
:1010100005900320CDE900010121CDE9021008204F
:10102000049069460448FFF78FF906B010BD000030
:10103000004C004040380240000002402DE9F843D7
:10104000044690F839001F4616460D46202850D118
:10105000A5B19EB194F8380001284AD0012084F847
:1010600038004FF00008C4F83C80212084F8390093
:10107000FFF748FAA6848146E68426E00120BDE811
:10108000F883E08C401EE084A0684B46B0F5805F9A
:101090004FF000024FF080012046009703D000F08F
:1010A000C5FDE8B90DE000F0C1FDC8B92888216888
:1010B000C0F308004860206908B16D1C05E0AD1C54
:1010C00003E0216815F8010B4860E08C0028D8D1B6
:1010D0004B46002240212046009700F0A7FD08B1B2
:1010E0000320CCE7202084F8390084F838800020E1
:1010F000C5E70220C3E7FEE710B504490448FFF73F
:10110000EEF80249491E087010BD000029000020B9
:101110001400002070B586B014216846FFF788F8E7
:1011200012480024016841F001010160016801F0EA
:1011300001010591016841F00201016000680C4E57
:1011400000F002004FF480550590224629463046B3
:10115000FFF7D2F901200095CDE901046946304638
:101160000394FFF7F1F806B070BD0000303802407C
:10117000000402400B480A494FF4007201604FF42A
:101180008271416000218160C1600161C0E9051286
:10119000C1610162416281620A21C162FFF7BFBC85
:1011A00000380040E8080020FEE770477047000064
:1011B0000648417811B14178491E41708178002973
:1011C00002D08178491E8170704700002D000020F8
:1011D0007CB541F6FF75FFF779F80024FF2000F099
:1011E000F5FA641C0A2CF9DB00F0BEFA40208DF8F9
:1011F000000000208DF801008DF802008DF803003A
:101200008DF8040095208DF8050000246E46305DB1
:1012100000F0DCFA641C062CF9DB00E06D1E00F027
:10122000BBFA012801D0002DF8D1FFF74FF8FF20BD
:1012300000F0CCFA0149012048707CBD000000207C
:1012400010B5064C3220207000F0A6FA00F0A4FA87
:10125000FF2802D021780029F8D110BD2F000020EE
:101260002DE9F041114D04460A200E4685F8000094
:1012700000F092FAFF2804D0FE2806D00020BDE836
:10128000F08128780028F3D1F8E72746651C00F0A4
:1012900083FA38706C1C00F07FFA2870B61EF4D107
:1012A00000F07AFA00F078FA0120E8E72E0000203A
:1012B00070B50C460546FFF7C3FFFF2801D0FF209D
:1012C00070BD284600F082FA200E00F07FFAC4F3C9
:1012D000074000F07BFAC4F3072000F077FAE0B291
:1012E00000F074FA0020402D06D0482D06D000F002
:1012F0006DFA4C2D06D007E0952000E0872000F025
:1013000065FA01E000F048FA5FF00A0400F044FAE0
:101310000106D5D5641E14F0FF04F7D170BD00009E
:1013200070B50E4604460025FFF78AFFFF2828D136
:10133000304600F04BFAFD2E1FD00026207800F03A
:1013400045FA6078A41C00F041FA761E16F0FF06FC
:10135000F4D100F021FA00F01FFA00BF00F01CFAEF
:10136000044600F01F00052803D06D1CEDB2402D8F
:10137000F4D900F011FA0028FBD004F01F00052872
:1013800001D0002070BD012070BD00002DE9F843A0
:1013900010B10120BDE8F883DFF8208198F8000043
:1013A000800702D598F80000F4E7FFF711FF00F07E
:1013B000DBF9002421464020FFF77AFF01286CD199
:1013C0003F4E642030704FF4D5714820FFF770FF16
:1013D00001280DD000217720FFF76AFF01283ED8B1
:1013E00000216920FFF764FF012838D802243DE07E
:1013F00000256F4600F0D0F978556D1CEDB2042D34
:10140000F8D39DF80200012847D19DF80300AA28CF
:1014100043D1450700217720FFF74AFF012804D870
:1014200029466920FFF744FF10B130780028F1D138
:10143000307890B300217A20FFF73AFF68BB002490
:1014400000F0AAF93855641CE4B2042CF8D39DF8D6
:101450000000400601D506241FE002241DE00124FF
:1014600001E0022C02D00021412007E0002177207A
:10147000FFF71EFF012804D800216920FFF718FF9D
:1014800010B130780028ECD1307828B14FF40071D9
:101490005020FFF70DFF00B10024454688F80240B8
:1014A000FEF714FF00F078F924B1287820F001004D
:1014B000287001E00020687028786BE700000020A9
:1014C0002E0000207FB515460E4610B1042004B052
:1014D00070BD01244B48052E04D00078C00715D0FC
:1014E0000320F4E747492A7849782AB1012A07D02E
:1014F000022A08D0042482E031B10021417003E0C7
:10150000FFF766FE00E06970002478E000F02CF937
:101510000B2E52D005DCE6B3012E07D0022E69D186
:1015200042E00C2E4CD00D2E64D155E00021492014
:10153000FFF7BEFE70BB10216846FFF791FE48B36F
:101540009DF800100120B0EB911F0AD19DF80820F2
:101550009DF8091000EB022008440004800928606F
:1015600038E09DF805009DF80A1000F00F0000EB30
:10157000D1109DF809109DF8072001F0030100EB40
:1015800041009DF80810890901EB82019DF80620B1
:1015900001E00DE02FE002F0030201EB8221C01F09
:1015A000491C8140296015E04FF40070288011E04B
:1015B000FFF746FEFF280DD01DE00021492001E085
:1015C00000214A20FFF774FEA8B910212846FFF732
:1015D00047FE80B100240EE000217A20FFF768FE6C
:1015E00040B9002400F0D8F8641CE4B205F8010BFF
:1015F000042CF7D30424FEF769FE00F0CDF8204652
:1016000065E70000000000202DE9F0411C4615466A
:101610000E4638B934B121480178C90704D00320F7
:10162000BDE8F0810420FBE78078400700D4550234
:1016300000F09AF84FF40077012C294604D052208C
:10164000FFF736FE70B11AE05120FFF731FEE0B926
:1016500039463046FFF704FEB8B1FEF737FE00F01A
:101660009BF818E039463046FFF7FAFD18B1641EC2
:1016700006F50076F6D100214C20FFF719FEFEF7A3
:1016800025FE00F089F824B905E0FEF71FFE00F002
:1016900083F80120C4E70020C2E70000000000201A
:1016A00008B1012070470148007870470000002011
:1016B0002DE9F0411C4616460F4638B934B1294D84
:1016C0002878C00704D00320BDE8F0810420FBE7A0
:1016D0002878400701D50220F6E7A878400700D413
:1016E000560200F041F8012C10D0A878800707D5E9
:1016F00000217720FFF7DCFD21465720FFF7D8FDBA
:1017000031465920FFF7D4FD78B11CE0314658200E
:10171000FFF7CEFDF0B9FE213846FFF701FEC8B154
:10172000FEF7D4FD00F038F819E0FC213846FFF749
:10173000F7FD18B1641E07F50077F6D1FD210020F2
:10174000FFF7EEFD30B1FEF7C1FD00F025F834B132
:101750000120B9E7FEF7BAFD00F01EF8F8E7002017
:10176000B2E700000000002000224FF48051014841
:10177000FEF7C2BE0004024038B50B460092044694
:101780000022802100F032F8002804D0606D40F083
:1017900020006065032038BD0EB5FF208DF80800DD
:1017A00000208DF804000848FFF7B6F90128FAD1A7
:1017B0004FF47A700090012301AA02A90248FFF7B2
:1017C000D3FA9DF804000EBDE808002001B50648D4
:1017D000FFF7A2F90128FAD14FF47A730122694682
:1017E0000148FFF713FA08BDE80800202DE9F04191
:1017F0001D4617460E460446DDF8188008E0681CB2
:1018000006D0FEF77FFEA0EB0800A8420BD255B130
:101810002068806836EA000030D00020B842EED15F
:101820000020BDE8F0812068416821F0E0014160BE
:101830006068B0F5827F0BD1A068B0F5004F02D090
:10184000B0F5806F04D12068016821F0400101608B
:10185000A06AB0F5005F09D12068016821F4005149
:1018600001602068016841F400510160012084F8A2
:101870005100002084F850000320D2E70120CDE77A
:1018800070470000074810B50178491C01700178C5
:101890000A2903D300210170FFF78AFCBDE810403C
:1018A000FEF736BE2D00002030B593B030216846DB
:1018B000FEF7BEFC14210CA8FEF7BAFC194800255F
:1018C000016841F080510160006800F08050119083
:1018D0001548016841F4804101600068022400F469
:1018E00080401190012003901020049000940694F1
:1018F0000820CDE90750A820CDE9090404200B9069
:101900006846FEF77BFF0CA90F2081E831004FF4F9
:10191000A0500F90E002109005210CA8FEF784FE65
:1019200013B030BD403802400070004010480168DC
:1019300041F4700101600F48016841F0010101604C
:101940000C4A00210832116002680B4B1A400260F9
:10195000031D0A4A1A60026822F4802202600548C8
:101960000C30016002495806803908607047000059
:1019700088ED00E000380240FFFFF6FE1030002442
:101980002DE9F041044600680169E26821F4405104
:10199000114301612169A068E2690843616911434B
:1019A00022680843D16849F20C6399430143D1602E
:1019B00020684169A26921F4407111434161E269E3
:1019C0006425B2F5004F9748974922684FF03208D6
:1019D0003FD08A4201D082427CD1FEF7CDFE00EB9F
:1019E000C00101EB001061688900B0FBF1F6FEF761
:1019F000C3FE00EBC00101EB001061688900B0FB81
:101A0000F1F0B0FBF5F06FF01801484306EB8001F0
:101A100008EB0110B0FBF5F000F0F006FEF7ACFEAD
:101A200000EBC00101EB001061688900B0FBF1F030
:101A3000B0FBF5F006EB0016FEF79EFE00EBC001D2
:101A400001EB001061688900B0FBF1F7FEF794FE2E
:101A5000D2E08A4201D082423DD1FEF78DFE00EBFA
:101A6000C00101EB001061684900B0FBF1F0B0FB70
:101A7000F5F00601FEF780FE00EBC00101EB00105F
:101A800061684900B0FBF1F7FEF776FE00EBC0019C
:101A900001EB001061684900B0FBF1F0B0FBF5F01C
:101AA0006FF01801484307EB800108EBC100B0FB61
:101AB000F5F000F0F80006EB4006FEF75DFE00EBE7
:101AC000C00101EB001061684900B0FBF1F7FEF7BF
:101AD00053FE3CE055E0FEF73FFE00EBC00101EB9A
:101AE000001061684900B0FBF1F0B0FBF5F00601B1
:101AF000FEF732FE00EBC00101EB00106168490007
:101B0000B0FBF1F7FEF728FE00EBC00101EB00107F
:101B100061684900B0FBF1F0B0FBF5F06FF018011F
:101B2000484307EB800108EBC100B0FBF5F000F083
:101B3000F80006EB4006FEF70FFE00EBC00101EBDC
:101B4000001061684900B0FBF1F7FEF705FE00EBFD
:101B5000C00101EB001061684900B0FBF1F0B0FB7F
:101B6000F5F06FF01801484307EB800108EBC10066
:101B7000B0FBF5F000F00700216830448860BDE854
:101B8000F081FEF7E9FD00EBC00101EB0010616898
:101B90008900B0FBF1F6FEF7DFFD00EBC00101EBC1
:101BA000001061688900B0FBF1F0B0FBF5F06FF058
:101BB0001801484306EB800108EB0110B0FBF5F07B
:101BC00000F0F006FEF7C8FD00EBC00101EB0010CD
:101BD00061688900B0FBF1F0B0FBF5F006EB001690
:101BE000FEF7BAFD00EBC00101EB0010616889004F
:101BF000B0FBF1F7FEF7B0FD00EBC00101EB001008
:101C000061688900B0FBF1F0B0FBF5F06FF01801EE
:101C1000484307EB800108EB0110B0FBF5F000F042
:101C20000F00A9E700140140001001402DE9F04128
:101C3000984617460E460446069D1DE0681C1BD0BC
:101C40002DB1FEF75FFCA0EB0800A84214D9206874
:101C5000C16821F4D071C1602068416921F001019F
:101C60004161202084F8390084F83A00002084F88B
:101C700038000320BDE8F0812068006836EA0000E3
:101C800004D00020B842D9D00020F3E70120F9E7C2
:101C90000248012101700078704700001000002008
:101CA0000120704700207047024801210170007830
:101CB000704700001000002000207047FEE7090771
:101CC000090E002804DB00F1E02080F800147047C2
:101CD00000F00F0000F1E02080F8141D704702E0D2
:101CE00008C8121F08C1002AFAD1704770470020A7
:101CF00001E001C1121F002AFBD1704701460020FC
:101D000000E0401C11F8012B002AFAD170470000B6
:101D100010B504460020E070401EE062204601F04D
:101D20008EF808B1042010BD04F22E2000F0B8FF98
:101D3000A0F52A41553901D0032010BD94F8300098
:101D4000E92805D0EB2814D194F83200902810D15E
:101D500004F1660000F099FF0749B1EB002F06D0AF
:101D600004F1820000F091FF0449884201D1002073
:101D700010BD022010BD00000046415446415433BE
:101D8000F0B50022144D134605EB021426685EB12F
:101D90000768BE4209D166688768BE4205D1A4685B
:101DA0004669B44204D000E00123521C022AEBD35E
:101DB000022A01D069B904E04BB9022907D01220E8
:101DC000F0BD05EB02108089B0F5807F01D00020C6
:101DD000F0BD1020F0BD00004009002030B500210A
:101DE000054B0C4603EB01121568854200D11460C7
:101DF000491C0229F6D330BD400900200268490A77
:101E0000C06A5289B1FBF2F1001D04C81AB19142B7
:101E100003D3891AF8E70020704700680844704728
:101E20004269891E921E8A4201D800207047826A48
:101E3000408901FB002070472DE9F04105680F0043
:101E4000804606D000F04EFE022809D20120BDE8EF
:101E5000F081EE6816B16869B04207D8012605E046
:101E6000411CF4D069698142F1D83E463446686924
:101E7000641CA04202D80224022E0AD32146404606
:101E800000F030FE38B10128E1D0411CDFD0B4426F
:101E9000EDD10020DBE74FF0FF36324621462846E1
:101EA00000F0E6FF30B957B122463946284600F027
:101EB000DFFF20B101280FD001242046C7E7EC60E6
:101EC000D5E90401891E884201D8401E286128797D
:101ED00040F001002871F0E73446EEE72DE9F041CB
:101EE0000E4624300D6804460B22202100F0A0FF8E
:101EF0000020014608272A5C401C202A12D92F2ADC
:101F00000BD05C2A09D02E2A01D0B94214D30B2F52
:101F100022D02E2A20D10CE0401C2B5C2F2BFBD092
:101F20005C2BF9D028443060B1B12078E5281FD06F
:101F300020E008210B27DEE7802A03D3114B1A4447
:101F400012F8802C10A300E05B1C93F800C0BCF1D9
:101F5000000F04D09445F7D10620BDE8F081A2F12E
:101F60006103192B01D8203AD2B26254491CC2E74E
:101F700005202070202A01D8042000E00020E07213
:101F80000020EAE756310008222A2B2C3A3B3C3D40
:101F90003E3F5B5D7C7F0000401E022812D20A4952
:101FA00001EB00118889B0F5807F05D008B1401E93
:101FB00080B2888110B103E00020FAE700200860B9
:101FC0000020704702207047400900202DE9F041B1
:101FD00004460021056800F0D8F8002826D12846DC
:101FE000E16900F02CFF02001FD1206A017899B14D
:101FF000C17A01F03F01A171C17A09070FD404F140
:1020000024010B2610F8013B11F8017BDB1B761E27
:1020100004D0002BF6D002E0042206E02BB1002110
:10202000204600F005F80200D9D01046BDE8F08146
:102030002DE9F047054647690468C069894620379D
:1020400010B1B7F5001F02D30420BDE8F087F905F1
:1020500060D1401CE861A9694FF0000829B160898E
:10206000401E10EA572F05D054E02089B0EB571FCF
:102070001DD94FE0284600F035FD064601281BD942
:10208000701C33D06069B0423ED8B9F1000F0ED059
:102090002846A969FFF7D0FE06000BD0012E0BD011
:1020A000701C23D0204601F007F8F8B906E0C5F807
:1020B0001C80C9E70720C8E70220C6E74FF400727A
:1020C000002104F1300000F0B3FE4FF0000831466B
:1020D0002046FFF7A5FE4FF00109E0620DE000BFCA
:1020E00084F80390204600F0E7FF08B10120ACE738
:1020F000E06A08F10108401CE06261894145EFD8BF
:10210000E16AA1EB0800E06231462046AE61FFF7CC
:1021100087FEE861C7F30800204430306F61286211
:10212000002092E770B504460021066800F02DF803
:102130000DE03046E16900F082FE50B9206A007877
:10214000E52809D040B101212046FFF771FF0028A2
:10215000EFD0042807D007E03046E16900F06FFEB9
:10216000050003D00FE0072005460CE020220021E7
:10217000206A00F05DFE0B2204F12401206A00F0C9
:102180004DFE0120F070284670BD2DE9F041076832
:102190000E460546B1F5001F36D2F00634D16E6109
:1021A000AC6824B93878032805D37C6A1CB17889D7
:1021B0004FEA402812E03889B0EB561F24D9786ADC
:1021C00012E0284600F08EFC0446401C1AD0022C77
:1021D0001AD37869A04217D9A6EB080646452146CE
:1021E000EFD23846FFF71CFEC5E9064060B100EBB0
:1021F0005620E861C6F308003844303028620020D9
:10220000BDE8F0810120FBE70220F9E7FFF7BEB847
:10221000FFF758B9FFF7F8B9FFF742BAFFF748BA26
:1022200038B5044600F0EBF900280CD16946204689
:1022300000F06BFF002806D12069FFF7ADFE0028F3
:1022400001D10021216038BD2DE9F74181B09046D0
:1022500002980090684600F0A6FC040003D50B200D
:1022600004B0BDE8F0810D4E002756F824501DB192
:102270002846FFF7B3FD2F700198002800D00770A3
:1022800046F8240002D0B8F1010F01D00020E7E7A2
:10229000002201A902A800F0C1FAE1E744000020F1
:1022A0002DE9F74392B005000BD002F03F0632460D
:1022B000694613A800F0B2FA04004FF0000804D0F9
:1022C000ECE0092015B0BDE8F0830098049004A864
:1022D000139900F0CDFB04000ED19DF83F000006DD
:1022E00001D5062408E0700801D0012100E000219A
:1022F00004A8FFF745FD044616F01C0F5DD04FF013
:102300000109C4B1042C10D10020674902E0401C2F
:10231000022804D201EB00121268002AF7D1022829
:1023200007D004A8FFF7FEFE044646F008065CB19D
:10233000B4E01224B2E09DF8160010F0110F47D15E
:10234000700701D50824A9E0300747D500F029FC23
:1023500007460C9839460E3000F05EFE0C98394660
:10236000163000F059FE0C982021C1720C9900988B
:1023700000F078FC074600220C99009800F038FE27
:102380000C9800211C3000F047FE009981F8039062
:1023900017B3D1F82C900022394604A800F0DDFDD7
:1023A00004007BD14946009800F049FD04000098E4
:1023B000A7F10107C7600DD070E0ECBB9DF81600D7
:1023C000C10601D5042469E0B10703D5C00701D0D7
:1023D000072463E0300701D546F040060098C06A44
:1023E00068620C98A862700801D0012100E0002109
:1023F00004A800F0F7FB2861B8B30C99009800F02E
:1024000031FCA8600C981C3000F03FFCC5F82C8013
:10241000E86000992960009905F130004FF40072DE
:10242000C988A9802E7585F81580C5F820800021FF
:102430008146C5F8188000E030E000F0F9FCB006F5
:102440002ED5EE6866B3AE610098A9684089470250
:102450000FE0284600F046FB0146012800D8022480
:10246000481C03D0F61B24B105E01BE00124F61B39
:1024700001E0BE42EDD8E96184B9F00510D00098C2
:10248000FFF7CEFC70B100EB56222A6200980123C0
:1024900049464078FFF7BEFE10B10124C5F8008020
:1024A00020460FE70224F9E7400900202DE9FE4FFE
:1024B00088460021196099461546044602A900F095
:1024C00024FE002812D1607D00280FD1207DC00796
:1024D0000BD0E168A0690127081A4FF0020A04F145
:1024E000300B854200D9054684E00720BDE8FE8F09
:1024F000A169C80566D102984089401E10EA51269C
:1025000011D129B1E06A28B12046FFF777FC05E038
:10251000A06803E02046E16900F0E4FA02281BD33A
:10252000411C4AD0E061E1690298FFF779FC98B15B
:1025300030440190680A009025D0029932184889E9
:10254000824201D9801B0090DDE900324878414683
:10255000FFF760FE88BB03E084F815A00220C5E702
:10256000207D00060CD5216A0198081A009988423E
:1025700006D208EB40204FF40072594600F04EFCA2
:10258000009846022CE0226A0198824218D0207DF1
:1025900000060AD50298012359464078FFF73EFE0F
:1025A00058B9207D00F07F0020750298012359461C
:1025B0004078019AFFF72EFE10B16775012095E76C
:1025C00001982062208BC0F30800C0F50076AE426F
:1025D00000D92E46011932464046303100F01EFC2B
:1025E000A069B0443044A061D9F800008119AD1B46
:1025F000C9F80010002D7FF47BAF002076E7F8B516
:102600000446694600F081FD00280ED1217D4A066E
:102610000BD508060ED50098226A0123407804F1F4
:102620003001FFF7FBFD08B10120F8BD207D00F06F
:102630007F00207500F0B5FA0646616A009800F048
:10264000FEFB0028F1D1A56A2946E87A40F0200077
:10265000E872A268206800F0CBFC05F11C00E1687C
:1026600000F0DAFC314605F1160000F0D5FC00213F
:1026700005F1120000F0D8FC00980121C17000F0B3
:10268000D7FC217D01F0BF012175F8BD2DE9FE4F7A
:1026900004460020884618609946154602A920463F
:1026A00000F033FD002806D1607D002803D1207D95
:1026B000800702D40720BDE8FE8FA06901274219D8
:1026C0004FF0020A04F1300B824200D2C5439BE076
:1026D000A169C80575D102984089401E10EA5126AB
:1026E00018D129B1E06A38B12046FFF787FB07E02F
:1026F000A06838B9002100E0E1692046FFF79CFBA3
:1027000000287DD001282DD0411C54D0E061A16863
:1027100001B9A060207D00060BD50298226A012332
:1027200040785946FFF77AFDA0BB207D00F07F007E
:102730002075E1690298FFF773FB98B1304401906E
:10274000680A009027D03218029841898A4201D93C
:10275000891B0091DDE9003240784146FFF75EFDBC
:10276000C0B903E084F815A00220A4E7216A01980B
:10277000081A009988420AD208EB40214FF40072EF
:10278000584600F04BFB207D00F07F00207500983C
:10279000460228E00FE0216A019881420FD0E168EB
:1027A000A06988420BD20298012359464078019AC9
:1027B000FFF730FD18B1677501207CE701E0019853
:1027C0002062208BC0F30800C0F50076AE4200D92D
:1027D0002E46204432464146303000F01FFB207D1B
:1027E00040F080002075A069B0443044A061E168E9
:1027F000884200D80846E060D9F80000811900E05E
:1028000005E0AD1BC9F80010002D7FF461AF207DFD
:1028100040F04000207500204DE700002DE9FF4109
:10282000002790460E460F6000F0BDF9050003D565
:102830000B2004B0BDE8F0818A4850F825409CB1D7
:102840003460207808F0FE0620B16078FFF7E4FCE1
:10285000C1070BD02770E8B2B8466070FFF7D6FC0E
:10286000C10708D00320E4E70C20E2E70EB14007DF
:1028700004D40020DDE71EB1400701D50A20D8E7C7
:10288000002631462046FFF743FA022822D10025D0
:102890004FEA0D0704EB051090F8F21100F5F77000
:1028A00019B1083000F0F1F900E0002047F82500E8
:1028B0006D1C042DEED3002557F8256036B1314646
:1028C0002046FFF725FA022801D203E003206D1C01
:1028D000042DF1D3042809D002286DD204F13B0065
:1028E00000F0DEF9B0F5007F66D101E00120A0E73D
:1028F00004F1460000F0D4F918B904F1540000F0D6
:10290000C4F9A06194F84050A570012D01D0022DAA
:1029100052D1454394F83D006081E8B3411E08421E
:102920004AD104F1410000F0BBF92081000743D1F6
:1029300004F1430000F0B4F9070004D104F15000A1
:1029400000F0A3F9074604F13E0000F0A9F90100E8
:1029500032D02389481900EB131297422CD3B81AAE
:102960006789B0FBF7F0B8B103274FF6F57C6045F7
:1029700000D8022740F6F57C604500D80127801C6E
:102980003244A26231446061C4E90761032F15D06B
:1029900013B12944616200E00EE0022F1FD000F065
:1029A000010100EB400001EB500000BFA16900F203
:1029B000FF10B1EB502F14D20D203AE704F15A006A
:1029C00000F06EF90028F7D120890028F4D104F135
:1029D0005C0000F05AF9606260698000E6E7400040
:1029E000E4E74FF0FF302061E06080202071032F8A
:1029F0002CD104F1600000F053F9012826D1711C9C
:102A0000204600F01CFA08BB84F8048004F22E2053
:102A100000F046F9A0F52A41553917D104F13000EC
:102A200000F033F91049884210D104F5057000F028
:102A30002CF90E49884209D104F5067000F025F9F9
:102A4000206104F5077000F020F9E0600549277067
:102A5000091F0888401C0880E0802046FFF7BEF967
:102A600007E7000044000020525261417272416148
:102A700073B504460568019801E0401C0190017897
:102A80002F29FAD05C29F8D00021A16001980078A4
:102A9000202806D2802084F82F002046FFF775FBFF
:102AA0007CBD01A92046FFF719FA0028F8D120467D
:102AB000FFF78CFA94F82F1028B10428F0D14907B9
:102AC000EED405207CBD4907FCD4A079C006F8D51A
:102AD000A08AC0F3080041192846303100F0C2F83E
:102AE000A060DEE72DE9F04104680D4602290BD312
:102AF0006069A84208D920784FF0FF36012807D036
:102B000002282BD0032839D001263046BDE8F081B9
:102B1000206A05EB550700EB5721204600F08FF99E
:102B20000028F2D1C7F3080020447F1C90F83080C1
:102B3000206A00EB5721204600F081F90028E4D1FB
:102B4000C7F30800204490F8301048EA0120E90754
:102B500001D00609D9E7C0F30B06D6E7206A00EBDF
:102B60001521204600F06BF90028CED1E8B204EB25
:102B70004000303000F094F80646C6E7206A00EBCB
:102B8000D511204600F05BF90028BED140F2FF10BD
:102B900000EA85002044303000F077F820F07046DD
:102BA000B3E70020704710B504464FF0FF302268AD
:102BB000002A13D0114600E0491C0B78212B0ED3BC
:102BC0003A2BF9D112F8013B303B0A2B06D28A424C
:102BD00004D1002B02D1491C1846216010BD0020F1
:102BE00010BD0000F0B502461D4BD2F80050002089
:102BF00003EB00142668AE4207D166689768BE42B0
:102C000003D1A4685669B44202D0401C0228EFD315
:102C1000022814D1002002E0401C022804D203EB59
:102C200000142468002CF7D102280ED003EB001406
:102C30002560956865605269A2600022A281002922
:102C400003EB0011898902D019B10020F0BD491CA5
:102C500001E04FF4807103EB0012401C9181F0BD44
:102C60004009002070B506460D4601F11A0000F03B
:102C700017F804463078032805D105F1140000F058
:102C80000FF844EA0044204670BDC178827842EAD9
:102C900001214278007842EA012140EA0120704790
:102CA0004178007840EA0120704700002DE9F041AA
:102CB000FDF736FCFEF7F8FDFEF72CFAFEF75AFAA0
:102CC000364835490C2201604FF4E1314160002162
:102CD0008160C160C0E904128161C161FEF749F9F8
:102CE000FEF70AFA2EA433A5002236A13648FFF7D4
:102CF000ABFA4FF0FF364FF47A7758B92046FDF71C
:102D0000A2FA82B2334621462448FEF797F93846A4
:102D1000FDF708FB0A222DA12F48FFF7C1FA2F4C1F
:102D20002F4920702F48FDF795FA2E48FEF7E6FF51
:102D3000024604F108032B492748FFF7A7FC20703F
:102D40002548FFF76DFA2846FDF77DFA82B2334633
:102D500029461248FEF772F93846FDF7E3FA0122D8
:102D60001AA11D48FFF79CFA207010B91EA000F0B0
:102D70002FF91948194B1B491B1DC268FFF796FB19
:102D8000184800F025F924A000F022F91248FFF7B6
:102D900047FA0020BDE8F081004C0040A808002060
:102DA00053445F43617264204D6F756E7465642196
:102DB000210D0A0046494C45204D41444521210D35
:102DC0000A000000000000004800002066696C65F1
:102DD000322E747874000000780200200400002075
:102DE000F4310008A804002066696C65322E7478FE
:102DF00074206973206F70656E20616E6420746842
:102E00006520646174612069732073686F776E2038
:102E100062656C6F770A00000A0A0000002A05D07C
:102E200011F8013B00F8013B521EF9D17047000038
:102E30005FFA81F100F8011B521EFBD1704770B59B
:102E40000446C06A0D460026A8420FD0204600F076
:102E500033F906000AD1607801232A4604F13001D3
:102E6000FFF7D8F908B1751E0126E562304670BD3E
:102E70002DE9F047022617460D460446022969D37C
:102E80006069A84266D920784FF00109012804D072
:102E9000022836D003285DD143E0216A05EB5508AE
:102EA00001EB58212046FFF7CAFF060052D1C8F3B4
:102EB00008002044303008F10108E90704D0017807
:102EC000FAB262F31F1100E03946017084F80390F2
:102ED000216A204601EB5821FFF7B1FF060039D1E6
:102EE000C8F3080020443030E90702D0C7F30711C7
:102EF00005E00178C7F3032201F0F00111430170EE
:102F000026E0206A00EB15212046FFF798FF060017
:102F100020D1E8B204EB4000B9B2303000F084F8C0
:102F200016E0206A00EBD5112046FFF788FF060067
:102F300010D140F2FF1000EA8500204430300546F1
:102F4000FFF7A3FE67F31B000146284600F064F874
:102F500084F803903046BDE8F0872DE9F04105681C
:102F600013460E46074602292DD36869B0422AD976
:102F70003BB14FF0FF3219462846FFF779FF002892
:102F80001FD131463846FFF7ADFD040018D0012CA3
:102F900019D0601C19D0002231462846FFF768FF7F
:102FA00000280ED1D5E90410821E914205D2491C99
:102FB0002961297941F0010129712646B042E0D802
:102FC0000020BDE8F0810220FBE70120F9E70000C6
:102FD00010B50446FDF737F9214682B2BDE810402E
:102FE0004FF47A730148FEF729B80000A8080020C2
:102FF00070B50C460646154691B204F11A0000F071
:1030000013F83078032806D1290C04F11400BDE828
:10301000704000F009B870BD0170090A4170090ADA
:103020008170090AC17070470170090A41707047C8
:1030300070B5044600F040F8050036D1207803282A
:103040002CD12079012829D1420204F1300000213D
:103050000646FFF7EDFE4AF6552104F22E20FFF753
:10306000E3FF13493046FFF7D7FF124904F5057017
:10307000FFF7D2FF04F506702169FFF7CDFF04F5D5
:103080000770E168FFF7C8FFE2690123521CE262A2
:1030900060783146FFF7C2F8002020710022607886
:1030A0001146FFF7B5F800B10125284670BD0000B4
:1030B00052526141727241612DE9F0410446C0787B
:1030C0000027F8B1E56A04F13001607801232A464F
:1030D0008846FFF7A3F808B1012713E00020E0704D
:1030E000206AA169281A88420CD2A67808E0A06953
:1030F0000123054460782A464146FFF78FF8761E83
:10310000022EF4D23846BDE8F08170B50E460400B8
:103110004FF009050CD0206850B1017841B1A18869
:10312000C288914204D14078FFF776F8C00703D0F7
:1031300000203060284670BD00252068F9E70000B7
:103140000000000000000102030406070809000057
:1031500000000102030443554541414141434545B7
:103160004549494941414592924F4F4F5555594F15
:10317000554F9C4F9E9F41494F55A5A5A6A7A8A96D
:10318000AAABACADAEAFB0B1B2B3B4414141B8B986
:10319000BABBBCBDBEBFC0C1C2C3C4C54141C8C922
:1031A000CACBCCCDCECFD1D145454549494949D9E6
:1031B000DADBDCDD49DF4FE14F4F4F4FE6E8E85502
:1031C00055555959EEEFF0F1F2F3F4F5F6F7F8F939
:1031D000FAFBFCFDFEFF01000400100040000001AE
:1031E000000200000100020004000800100020009E
:1031F00000000000546869732069732046696C659B
:10320000322E7478742C207772697474656E207510
:1032100073696E67202E2E2E665F77726974652E35
:103220002E2E20616E6420697420736179732048AA
:10323000656C6C6F2066726F6D2050617261670AF9
:103240000000000064320008000000204800000078
:10325000DE1C0008AC32000848000020280D0000E9
:10326000EE1C00080100000000000000000000004B
:103270000000000001000000911C0008A91C0008CB
:10328000A51C0008B91C0008A11C000800000000D3
:10329000000000000100000010000000000000001D
:0C32A0000024F40000000000000000000A
:040000050800018965
:00000001FF
